:020000040000FA
:0600000098EF1EF0120053
:0600080004EF08F01200F5
:060018000CEF08F01200DD
:0610000098EF1EF0120043
:021006001200D6
:0610080016EF08F01200D3
:061018001FEF08F01200BA
:02101E000100CF
:0C102000623D0000600000008C00000039
:04102C00DACFE4FF34
:10103000E2CFDAFFE652E552E5CFDAFF1100D8CF72
:10104000E4FFE0CFE4FFE46EDACFE4FFE2CFDAFFC3
:10105000E652E552E5CFDAFFE550E5CFE0FFE5CF18
:10106000D8FF100005D8C0EC13F038D9FCD7120017
:101070000F0EC11202D870EF13F0D9CFE6FFE1CF07
:10108000D9FF050EE126010EF36E040EF3CFDBFF50
:101090007F0E936E7F6A7E6A01018E6B8F6B906B01
:1010A000916B926B936B946B956B0001676B686BA4
:1010B000696B6A6B02016C6B6CC26BF26CC26AF298
:1010C0006CC269F26F6B6FC26EF26FC26DF2020199
:1010D000686B68C267F268C266F268C265F268C28D
:1010E00064F268C263F268C262F268C261F201012E
:1010F000816B81C180F181C17FF181C17EF18D6BF6
:101100008DC18CF18DC18BF18DC18AF18DC189F1B9
:101110008DC188F18DC187F18DC186F1826B836BA2
:10112000800E846F856FDE6ADD6ADECF14F0DDCF5E
:1011300015F0D890155004E6240E145C000E1558D6
:1011400057E2020EDB6A030EDB6A020EDBCF14F0FD
:10115000030EDBCF15F0D890155004E6030E145C97
:10116000000E155840E2DECF18F0DDCF19F0030E67
:101170001902F3CF19F01802F3CF18F0F450192622
:10118000020EDB501824166E030EDB501920176E6A
:1011900016C0E6FF17C0E6FF4CEC1EF0E552E55224
:1011A000E66EDECF14F0DDCF15F0030E1502F3CF9F
:1011B00015F01402F3CF14F0F45015267D0E14260A
:1011C000000E1522020EDB501424E96E030EDB50D4
:1011D0001520EA6EE552E750EF6E020EDB2A030E91
:1011E00001E3DB2AB2D7DF2A010E01E3DB2A9DD718
:1011F00000017D5169E07D0567E0020E7D5D64E0E0
:10120000DE6ADD6ADECF14F0DDCF15F0D890155020
:1012100004E6240E145C000E155856E2020EDB6A3A
:10122000030EDB6A020EDBCF14F0030EDBCF15F0EA
:10123000D890155004E6030E145C000E15583FE2DA
:10124000DECF14F0DDCF15F0030E1502F3CF15F04D
:101250001402F3CF14F0F45015267D0E1426000E60
:101260001522020EDB501424E96E030EDB5015200C
:10127000EA6EEF6AE66ADECF16F0DDCF17F0030EF6
:101280001702F3CF17F01602F3CF16F0F45017261B
:10129000020EDB501624146E030EDB501720156E61
:1012A00014C0E6FF15C0E6FF5BEC1EF0E552E55208
:1012B000E552020EDB2A030E01E3DB2AB3D7DF2A55
:1012C000010E01E3DB2A9ED7050EE15C02E2E16A32
:1012D000E552E16EE552E7CFD9FF1200D9CFE6FF24
:1012E000E1CFD9FF090EE126200E0101E76E40197A
:1012F000E8AE02D0E73402D0E750405D03E364502B
:10130000020B02E0E5EF12F000016C6B6CC06BF0B9
:101310008A9E020EE66EA6EC1EF0E55281BC02D05B
:1013200000016B8181BA02D000016B8382B202D0CE
:1013300000016B8582B002D000016B878A8E020E9D
:10134000E66EA6EC1EF0E55282B202D000016B8977
:1013500082B002D000016B8B81B802D000016C8199
:1013600082B402D000016C838A9E020EE66EA6EC67
:101370001EF0E5528A8E020EE66EA6EC1EF0E552D5
:101380008A9E020EE66EA6EC1EF0E5528250040B19
:1013900001E0010E166E8150100B01E0010E156E7A
:1013A0008150200B01E0010E146E8150400B01E0D2
:1013B000010E14101510161036E18A8E020EE66E1C
:1013C000A6EC1EF0E55281BC02D000016C8581BA0A
:1013D00002D000016C8781B802D000016C8982B410
:1013E00002D000016C8B8A9E020EE66EA6EC1EF007
:1013F000E5528250040B01E0010E166E8150100B75
:1014000001E0010E156E8150200B01E0010E146EFB
:101410008150400B01E0010E14141514161403E161
:10142000C30E00016C17020EF36E040EF3CFDBFF48
:10143000050EDB6A0101966B0101976B0101986B48
:101440000101996B01019A6B01019B6B01019C6B7E
:1014500001019D6B01019E6B01019F6BDE6ADD6ADC
:10146000DECF14F0DDCF15F0D890155004E6240E31
:10147000145C000E155801E374D3DECF15F0DDCFF8
:1014800016F0060E0D6E0E6A15C008F016C009F0B3
:1014900082EC1DF004C015F005C016F0010E15C059
:1014A000E7FFE75204E0E846FE0BE706FCE1146EB6
:1014B000DECFE9FFDDCFEAFF060E0D6E0E6AE9CF43
:1014C00008F0EACF09F082EC1DF008C0E9FF09C07E
:1014D000EAFF6B0EE926000EEA22EF50141402E038
:1014E000010E01D0000EE76E060EE7CFDBFFDECF68
:1014F000E9FFDDCFEAFF030EEA02F3CFEAFF030EB6
:10150000E902F3CFE9FFF450EA267D0EE926000E4A
:10151000EA22EF50020A01E177D2030A01E120D268
:10152000010A01E018D3060EDB0401E018D2DECF79
:10153000E9FFDDCFEAFF030EEA02F3CFEAFF030E75
:10154000E902F3CFE9FFF450EA267D0EE926000E0A
:10155000EA22010EE926000EEA22EF5003E1010122
:101560007E81FAD1DECFE9FFDDCFEAFF030EEA028A
:10157000F3CFEAFF030EE902F3CFE9FFF450EA26C6
:101580007D0EE926000EEA22010EE926000EEA226F
:10159000EF0403E101017E83DFD1DECFE9FFDDCF80
:1015A000EAFF030EEA02F3CFEAFF030EE902F3CFEC
:1015B000E9FFF450EA267D0EE926000EEA22010E2C
:1015C000E926000EEA22EF50020803E101017E85C0
:1015D000C3D1DECFE9FFDDCFEAFF030EEA02F3CF8E
:1015E000EAFF030EE902F3CFE9FFF450EA267D0E8D
:1015F000E926000EEA22010EE926000EEA22EF504B
:1016000003081FE10101010E966F01019C5118E1D1
:10161000DECFE9FFDDCFEAFF030EEA02F3CFEAFFF8
:10162000030EE902F3CFE9FFF450EA267D0EE92626
:10163000000EEA22020EE926000EEA22EFCF9CF10C
:101640008BD1DECFE9FFDDCFEAFF030EEA02F3CF55
:10165000EAFF030EE902F3CFE9FFF450EA267D0E1C
:10166000E926000EEA22010EE926000EEA22EF50DA
:1016700004081FE10101010E976F01019D5118E15E
:10168000DECFE9FFDDCFEAFF030EEA02F3CFEAFF88
:10169000030EE902F3CFE9FFF450EA267D0EE926B6
:1016A000000EEA22020EE926000EEA22EFCF9DF19B
:1016B00053D1DECFE9FFDDCFEAFF030EEA02F3CF1D
:1016C000EAFF030EE902F3CFE9FFF450EA267D0EAC
:1016D000E926000EEA22010EE926000EEA22EF506A
:1016E00005081FE10101010E986F01019E5118E1EB
:1016F000DECFE9FFDDCFEAFF030EEA02F3CFEAFF18
:10170000030EE902F3CFE9FFF450EA267D0EE92645
:10171000000EEA22020EE926000EEA22EFCF9EF129
:101720001BD1DECFE9FFDDCFEAFF030EEA02F3CFE4
:10173000EAFF030EE902F3CFE9FFF450EA267D0E3B
:10174000E926000EEA22010EE926000EEA22EF50F9
:1017500006081FE10101010E996F01019F5118E177
:10176000DECFE9FFDDCFEAFF030EEA02F3CFEAFFA7
:10177000030EE902F3CFE9FFF450EA267D0EE926D5
:10178000000EEA22020EE926000EEA22EFCF9FF1B8
:10179000E3D0DECFE9FFDDCFEAFF030EEA02F3CFAD
:1017A000EAFF030EE902F3CFE9FFF450EA267D0ECB
:1017B000E926000EEA22010EE926000EEA22EF5089
:1017C00007081CE10101010E9A6FDECFE9FFDDCFB2
:1017D000EAFF030EEA02F3CFEAFF030EE902F3CFBA
:1017E000E9FFF450EA267D0EE926000EEA22020EF9
:1017F000E926000EEA22EFCFA0F1AED0DECFE9FF5E
:10180000DDCFEAFF030EEA02F3CFEAFF030EE9029F
:10181000F3CFE9FFF450EA267D0EE926000EEA2216
:10182000010EE926000EEA22EF5008081CE1010132
:10183000010E9B6FDECFE9FFDDCFEAFF030EEA0268
:10184000F3CFEAFF030EE902F3CFE9FFF450EA26F3
:101850007D0EE926000EEA22020EE926000EEA229B
:10186000EFCFA1F179D0DECFE9FFDDCFEAFF030EA4
:10187000EA02F3CFEAFF030EE902F3CFE9FFF450E7
:10188000EA267D0EE926000EEA22010EE926000E68
:10189000EA22EF50090860E1DECFE9FFDDCFEAFF81
:1018A000030EEA02F3CFEAFF030EE902F3CFE9FFEA
:1018B000F450EA267D0EE926000EEA22020EE92601
:1018C000000EEA22EFCF9CF1DECFE9FFDDCFEAFF89
:1018D000030EEA02F3CFEAFF030EE902F3CFE9FFBA
:1018E000F450EA267D0EE926000EEA22020EE926D1
:1018F000000EEA22EFCF9DF1DECFE9FFDDCFEAFF58
:10190000030EEA02F3CFEAFF030EE902F3CFE9FF89
:10191000F450EA267D0EE926000EEA22020EE926A0
:10192000000EEA22EFCF9EF1DECFE9FFDDCFEAFF26
:10193000030EEA02F3CFEAFF030EE902F3CFE9FF59
:10194000F450EA267D0EE926000EEA22020EE92670
:10195000000EEA22EFCF9FF10001050EEA6FFCD0E6
:10196000060EDB0450E1D950040FE96EDACFEAFF2E
:10197000080EEE1801E1ED5043E0DECFE9FFDDCFC8
:10198000EAFF030EEA02F3CFEAFF030EE902F3CF08
:10199000E9FFF450EA267D0EE926000EEA22020E47
:1019A000E926000EEA22EF5001018613DECFE9FF9F
:1019B000DDCFEAFF030EEA02F3CFEAFF030EE902EE
:1019C000F3CFE9FFF450EA267D0EE926000EEA2265
:1019D000010EE926000EEA22EF50E66E040EDBCF80
:1019E000E9FF050EDBCFEAFF860EE926010EEA22AB
:1019F000E552E750EF6E040EDB2A050E01E3DB2A09
:101A00000001050EEB6FA8D0060EDB0401E0A2D0AA
:101A1000DECFE9FFDDCFEAFF030EEA02F3CFEAFFF4
:101A2000030EE902F3CFE9FFF450EA267D0EE92622
:101A3000000EEA22010EE926000EEA22EF50010B09
:101A400002E00101856BDECFE9FFDDCFEAFF030E87
:101A5000EA02F3CFEAFF030EE902F3CFE9FFF45005
:101A6000EA267D0EE926000EEA22010EE926000E86
:101A7000EA22EF50020B02E001018569DECFE9FFA7
:101A8000DDCFEAFF030EEA02F3CFEAFF030EE9021D
:101A9000F3CFE9FFF450EA267D0EE926000EEA2294
:101AA000010EE926000EEA22EF50040B02E00101CC
:101AB000846BDECFE9FFDDCFEAFF030EEA02F3CF4E
:101AC000EAFF030EE902F3CFE9FFF450EA267D0EA8
:101AD000E926000EEA22010EE926000EEA22EF5066
:101AE000080B02E001018469DECFE9FFDDCFEAFFE8
:101AF000030EEA02F3CFEAFF030EE902F3CFE9FF98
:101B0000F450EA267D0EE926000EEA22020EE926AE
:101B1000000EEA22EF5001018213DECFE9FFDDCF94
:101B2000EAFF030EEA02F3CFEAFF030EE902F3CF66
:101B3000E9FFF450EA267D0EE926000EEA22010EA6
:101B4000E926000EEA22EF380F0B01018313000192
:101B5000050EE96F01D000D0DF2A010E01E3DB2A78
:101B60007FD401018E518F1102E1000E08D08EC189
:101B7000E9FF8FC1EAFFEF50800B01E0010E000981
:101B800001E0A8D1010196053FE101019C51146ECD
:101B9000156A1450000171271550000172230001CD
:101BA000723504E271513208000E72552CE271C098
:101BB00014F072C015F0320E0D6E0E6A14C008F0EB
:101BC00015C009F082EC1DF008C014F009C015F032
:101BD0000868096814C00DF015C00EF0A8EC1DF0DF
:101BE00006C080F171C071F072C072F0320E0D6EDD
:101BF0000E6A71C008F072C009F082EC1DF004C0DA
:101C000071F005C072F003D00001716B726B0101BD
:101C1000970533E101019D51146E156A14500001BE
:101C200073271550000174230001743504E27351C9
:101C30003208000E745520E2320E146E156A73C01D
:101C400008F074C009F014C00DF015C00EF082EC5D
:101C50001DF008C080F173C073F074C074F0320ED0
:101C60000D6E0E6A73C008F074C009F082EC1DF0AE
:101C700004C073F005C074F003D00001736B746B83
:101C8000010198053FE101019E51146E156A14503F
:101C9000000175271550000176230001763504E216
:101CA00075513208000E76552CE275C014F076C0DE
:101CB00015F0320E0D6E0E6A14C008F015C009F052
:101CC00082EC1DF008C014F009C015F0086809681E
:101CD00014C00DF015C00EF0A8EC1DF006C07FF189
:101CE00075C075F076C076F0320E0D6E0E6A75C056
:101CF00008F076C009F082EC1DF004C075F005C054
:101D000076F003D00001756B766B0101990533E124
:101D100001019F51146E156A145000017727155068
:101D2000000178230001783504E277513208000E73
:101D3000785520E2320E146E156A77C008F078C02C
:101D400009F014C00DF015C00EF082EC1DF008C0B3
:101D50007FF177C077F078C078F0320E0D6E0E6AA2
:101D600077C008F078C009F082EC1DF004C077F06D
:101D700005C078F003D00001776B786B01019A05FC
:101D800035E10101A051146E156A14500001792744
:101D9000155000017A2300017A3504E27951E808F0
:101DA000030E7A5522E2E80E146E030E156E79C00A
:101DB00008F07AC009F014C00DF015C00EF082ECE6
:101DC0001DF008C081F179C079F07AC07AF0E80E90
:101DD0000D6E030E0E6E79C008F07AC009F082EC29
:101DE0001DF004C079F005C07AF003D00001796BD2
:101DF0007A6B01019B0541E10101A151146E156A45
:101E0000145000017B27155000017C2300017C3514
:101E100004E27B51E808030E7C552EE27BC014F0EF
:101E20007CC015F0E80E0D6E030E0E6E14C008F0A7
:101E300015C009F082EC1DF008C014F009C015F0BF
:101E40000868096814C00DF015C00EF0A8EC1DF06C
:101E500006C081F17BC07BF07CC07CF0E80E0D6E8B
:101E6000030E0E6E7BC008F07CC009F082EC1DF002
:101E700004C07BF005C07CF003D000017B6B7C6B61
:101E80007EC16DF27FC16EF280C16FF281C170F2CE
:101E900001017E6B01017F6B0101806B0101816B90
:101EA0000001EA51000816E2040EE66E6D0EE66EC1
:101EB000020EE66E010EE66E010EE66E1AEC1BF0E7
:101EC000146E050EE15E1450F3CF8EF1F4CF8FF156
:101ED0000001EA0701019251931102E1000E08D0BE
:101EE00092C1E9FF93C1EAFFEF50800B01E0010EC0
:101EF00000093AE186C161F287C162F288C163F2EA
:101F000089C164F28AC165F28BC166F28CC167F245
:101F10008DC168F201018D6B8DC18CF18DC18BF18A
:101F20008DC18AF18DC189F18DC188F18DC187F193
:101F30008DC186F10001EB51000816E2080EE66E35
:101F4000610EE66E020EE66E010EE66E030EE66EA2
:101F50001AEC1BF0146E050EE15E1450F3CF92F1F3
:101F6000F4CF93F10001EB0701019051911102E1CF
:101F7000000E08D090C1E9FF91C1EAFFEF50800B3D
:101F800001E0010E00092CE182C169F283C16AF20D
:101F900084C16BF285C16CF20101826B0101836B1C
:101FA0000101800E846F0101800E856F0001E951EF
:101FB000000816E2040EE66E690EE66E020EE66E8C
:101FC000010EE66E020EE66E1AEC1BF0146E050EA4
:101FD000E15E1450F3CF90F1F4CF91F10001E907E5
:101FE00000016751681102E1000E08D067C0E9FFE7
:101FF00068C0EAFFEF50800B01E0010E000901E02C
:10200000E4D202017951560A01E13AD2030A01E110
:1020100019D26D0A01E171D10F0A01E1CDD0B60AE2
:1020200001E184D0010A01E0BDD202017A51030D21
:10203000F3CFE9FFF4CFEAFF7D0EE926000EEA2296
:102040007BC2EFFF02017A51030DF3CFE9FFF4CF1A
:10205000EAFF7D0EE926000EEA22010EE926000EB7
:10206000EA227CC2EFFF02017A51030DF3CFE9FFB0
:10207000F4CFEAFF7D0EE926000EEA22020EE926E1
:10208000000EEA227DC2EFFF02017A51030DF3CF69
:10209000E9FFF4CFEAFF7D0EE926000EEA22EF50B9
:1020A000E66E030E02017A03F350E66EE66A5BEC1D
:1020B0001EF0E552E552E55202017A51030DF3CFCD
:1020C000E9FFF4CFEAFF7D0EE926000EEA22010EB9
:1020D000E926000EEA22EF50E66E030E02017A03B3
:1020E000F328E66EE66A5BEC1EF0E552E552E55237
:1020F00002017A51030DF3CFE9FFF4CFEAFF7D0E21
:10210000E926000EEA22020EE926000EEA22EF502E
:10211000E66E030E02017A03F350020FE66EE66AE2
:102120005BEC1EF0E552E552E5523CD20201810E15
:10213000B96F3F0E00016B150201BA6F3F0E00012F
:102140006C150201BB6F3F0E00016D150201BC6FE3
:102150003F0E00016E150201BD6F3F0E00016F15AD
:102160000201BE6F3F0E000170150201BF6F00013A
:1021700069516A1102E1000E08D069C0E9FF6AC026
:10218000EAFFEF50800B01E0010E000914E1400E60
:10219000E66EB90EE66E020EE66E010EE66E040EF7
:1021A000E66E1AEC1BF0146E050EE15E1450F3CFD0
:1021B00069F0F4CF6AF0F6D1000169516A1102E1C9
:1021C000000E08D069C0E9FF6AC0EAFFEF50800B3B
:1021D00001E0010E000901E08FD00201370EB96F56
:1021E000DE6ADD6ADECF14F0DDCF15F0D890155031
:1021F00004E6120E145C000E15585AE2020EDB6A59
:10220000030EDB6A020EDBCF14F0030EDBCF15F0FA
:10221000D890155004E6030E145C000E155843E2E6
:10222000DECF16F0DDCF17F0030E1702F3CF17F055
:10223000030E1602F3CF16F0F45017267D0E162665
:10224000000E1722020EDB501624E96E030EDB503F
:102250001720EA6EEF50E66EDECF14F0DDCF15F0FA
:10226000030E1502F3CF15F0030E1402F3CF14F092
:10227000F4501526020EDB501424E96E030EDB50D9
:102280001520EA6E010EE926000EEA22B90EE926B3
:10229000020EEA22E552E750EF6E020EDB2A030E31
:1022A00001E3DB2AAFD7DF2A010E01E3DB2A9AD74D
:1022B000000169516A1102E1000E08D069C0E9FF0E
:1022C0006AC0EAFFEF50800B01E0010E000914E143
:1022D000400EE66EB90EE66E020EE66E010EE66E7A
:1022E000040EE66E1AEC1BF0146E050EE15E14503F
:1022F000F3CF69F0F4CF6AF055D1000169516A114A
:1023000002E1000E08D069C0E9FF6AC0EAFFEF50A1
:10231000800B01E0010E000901E093D00201380EAC
:10232000B96FDE6ADD6ADECF14F0DDCF15F0D8902C
:10233000155004E6120E145C000E15585EE2020EF3
:10234000DB6A030EDB6A020EDBCF14F0030EDBCF79
:1023500015F0D890155004E6030E145C000E1558C5
:1023600047E2DECF16F0DDCF17F0120E1626000E74
:102370001722030E1702F3CF17F0030E1602F3CF46
:1023800016F0F45017267D0E1626000E1722020EA8
:10239000DB501624E96E030EDB501720EA6EEF5077
:1023A000E66EDECF14F0DDCF15F0030E1502F3CF8D
:1023B00015F0030E1402F3CF14F0F4501526020E9C
:1023C000DB501424E96E030EDB501520EA6E010E7B
:1023D000E926000EEA22B90EE926020EEA22E552AB
:1023E000E750EF6E020EDB2A030E01E3DB2AABD7C8
:1023F000DF2A010E01E3DB2A96D7000169516A1139
:1024000002E1000E08D069C0E9FF6AC0EAFFEF50A0
:10241000800B01E0010E000914E1400EE66EB90EDA
:10242000E66E020EE66E010EE66E040EE66E1AEC25
:102430001BF0146E050EE15E1450F3CF69F0F4CF7B
:102440006AF0B0D06492646ADE6ADD6ADECF14F0AE
:10245000DDCF15F0D890155004E6FF0E145C000E89
:1024600015580CE2E868E85004E0E80600D000D017
:10247000FAD7DF2A010E01E3DB2AE8D7FF0092D06A
:102480000201560EB96F600EE66E000EE66E3EEC6F
:102490001EF0E552E552070EF3CFDBFF146A070E7C
:1024A000DB50E76E1418E8AE02D0E73402D0E750F4
:1024B000145C51E2070EDBCF15F03E0EE76E1518E7
:1024C000E8AE02D0153403D0E750D880155443E36A
:1024D000DE6ADD6ADECF14F0DDCF15F0070EDBCF4C
:1024E00016F0176A16BE176815501718E8AE02D016
:1024F000173404D01650145C175015581EE2DECF66
:10250000E9FFDDCFEAFF600EE926000EEA22EF5078
:10251000E66EDECFE9FFDDCFEAFF010EE926000E11
:10252000EA22B90EE926020EEA22E552E750EF6EE2
:10253000DF2A010E01E3DB2ACDD7DECFE9FFDDCFB5
:10254000EAFF010EE926000EEA22B90EE926020E84
:10255000EA22EF6A02D00201BA6B000169516A11E6
:1025600002E1000E08D069C0E9FF6AC0EAFFEF503F
:10257000800B01E0010E000914E1400EE66EB90E79
:10258000E66E020EE66E010EE66E040EE66E1AECC4
:102590001BF0146E050EE15E1450F3CF69F0F4CF1A
:1025A0006AF000D0400EE66E790EE66E020EE66E20
:1025B000E66A040EE66E1AEC1BF0146E050EE15E80
:1025C0001450F3CF67F0F4CF68F0090EE15C02E23B
:1025D000E16AE552E16EE552E7CFD9FF1200120041
:1025E000120012001200C3EF1CF012001E0EE66E65
:1025F000010EE66E74EC1AF0E552E5521E0EE66E20
:10260000020EE66E74EC1AF0E552E5521E0EE66E0E
:10261000030EE66E74EC1AF0E552E5521E0EE66EFD
:10262000040EE66E74EC1AF0E552E5521200648472
:102630000101080EA26F070EA36FA207000EA35B95
:10264000A251A311FAE164941200D9CFE6FFE1CFC1
:10265000D9FFFD0EDBCF08F0FE0EDBCF09F0720EC6
:10266000081801E1095033E0E868081802E17F0E1C
:1026700009182BE0740E081801E1095024E0750ECA
:10268000081801E109501DE0730E081801E1095016
:1026900016E0030E081801E109500FE0020E0818B9
:1026A00001E1095008E0010E081801E1095001E0BC
:1026B00010D09CDF0FD099DF0DD095DF0BD091DFCC
:1026C00009D08DDF07D08CDF05D08CDF03D0000070
:1026D00001D000D0010E00D0E552E7CFD9FF1200A3
:1026E000D9CFE6FFE1CFD9FFE6520F015F6B626AF7
:1026F000160E616E9F0E5B6F7B0E606E648C5C6B62
:10270000040EE66EE66AE66A540EE66E0F0EE66E9C
:1027100024EC1EF0146E050EE15E1450649CDF6A1A
:10272000DF50146E156A140E145C000E155810E27A
:10273000DF50040DF3CFE9FFF4CFEAFF000EE926E6
:10274000020EEA22EE6AEE6AEE6AEE6ADF2AE8D745
:102750000F01160E536F62A602D06296FCD70101DC
:102760005F6B646B656B666B6498080E516F020E4D
:10277000526F416B406BE552E552E7CFD9FF120033
:10278000D9CFE6FFE1CFD9FFE6520101405117E171
:1027900006D0646A606A0101406BA194AAD0646AA1
:1027A000606A160E616E0F019F0E5B6F7B0E606E8E
:1027B00064B602D06486FCD70101010E406F40056B
:1027C00008E164BA06D0626A606A60806088020EBE
:1027D000406F6250040B05E06050040B02E062940D
:1027E000B9D864A202D0A19484D06250010B12E047
:1027F0006050010B0FE074DF0101040E406F020115
:10280000500E026F020E036F080E016F006B8C0EEC
:10281000001362906250100B05E06050100B02E054
:1028200087D862986250400B13E06050400B10E074
:10283000010EE66EE66A000EE66EE66A730EE66E5E
:10284000E66A25EC13F0146E060EE15E1450629CED
:102850006250200B04E06050200B01E04FD8625022
:10286000020B14E06050020B11E0010EE66EE66A06
:10287000000EE66EE66AE6687F0EE66E25EC13F063
:10288000146E060EE15E14500F015F6B040E010121
:10289000E76E4019E8AE02D0E73402D0E750405D61
:1028A00002E2A19426D060A623D0DF6A040EDF5C8A
:1028B0001FE262A61AD063CF6CF16296780E010116
:1028C0006C1502E15CD810D0000EE66EE66A6C0E64
:1028D000E66E010EE66E720EE66EE66A25EC13F009
:1028E000146E060EE15E145001D002D0DF2ADED74E
:1028F000A194E552E552E7CFD9FF12000F0153A191
:1029000015D043C1E9FF44C1EAFFEF5080080DE153
:1029100051C1E9FF52C1EAFFEF50840806E143C10B
:10292000E9FF44C1EAFF8C0EEF6E5391629A1200E8
:10293000608462986482000EE66EE66AE66EE66A7D
:10294000750EE66EE66A25EC13F0146E060EE15E77
:1029500014501200000EE66EE66AE66EE66A740E29
:10296000E66EE66A25EC13F0146E060EE15E145076
:102970006492609462A402D06294FCD71200D9CF12
:10298000E6FFE1CFD9FFE652FD0E01016C155AE1D9
:102990007E0E6C15E8407F0B040DF3CF43F1F4CFAE
:1029A00044F1000E4327020E442343C145F144C1C4
:1029B00046F1457543C1E9FF44C1EAFFEF503C0BC6
:1029C000E842E8420D083CE143C1E9FF44C1EAFFA7
:1029D000020EE926000EEA22EECF14F0EFCF15F03A
:1029E000580E141802E1020E151828E143C1E9FF40
:1029F00044C1EAFF020EE926000EEA22500EEE6EF6
:102A0000020EED6EDF6ADF50146E156A080E145C5C
:102A1000000E155813E2DF50EA6A580FE96E020EF5
:102A2000EA22EF50E66EDF50EA6A500FE96E020EBE
:102A3000EA22E552E750EF6EDF2AE5D70DD801D044
:102A40002ED805D0FD0E6C15040801E14ED8E552D4
:102A5000E552E7CFD9FF120051C1E9FF52C1EAFFA9
:102A6000EF50800B05E051C1E9FF52C1EAFFEF6A68
:102A700001015B6B5C6B606B616B5F6BB9D8000EC7
:102A8000E66EE66AE66EE66A030EE66EE66A25EC38
:102A900013F0146E060EE15E1450A3EF17F0020E51
:102AA00001015C5D02E1AFDB1FD06FD801016D5108
:102AB0001AE145C1E9FF46C1EAFFEE52080EEF6E8A
:102AC00045C1E9FF46C1EAFF020EE926000EEA22EF
:102AD000500EEE6E020EED6E45C1E9FF46C1EAFFF3
:102AE0008C0EEF6E01D06D6B1200D9CFE6FFE1CFF7
:102AF000D9FFE65251C1E9FF52C1EAFFEF50400B46
:102B000001E0010EDF6E01015175080E405D0DE11F
:102B100052C25CFF0F015C51000804E20101100E7B
:102B2000406F03D00101040E406F5C0528E151C1E4
:102B3000E9FF52C1EAFF020EE926000EEA22580E12
:102B4000EE6E020EED6ED4DA020E01015B5D07E15E
:102B500051C1E9FF52C1EAFF840EEF6E0FD0DF5082
:102B600007E151C1E9FF52C1EAFFC80EEF6E06D07E
:102B700051C1E9FF52C1EAFF880EEF6E01D005D8BE
:102B8000E552E552E7CFD9FF1200D9CFE6FFE1CFFA
:102B9000D9FF020EE12601015C6B51C1E9FF52C170
:102BA000EAFFEF6A040E5119146E52C115F014C0F9
:102BB000DEFF15C0DDFFDECFE9FFDDCFEAFFEF6A04
:102BC00064AF0CD06751681107E005D068C1FAFF07
:102BD00001016751F96EFADF0101649F020EE15CA9
:102BE00002E2E16AE552E16EE552E7CFD9FF120059
:102BF00002015051600BE842E842E842E842E842F4
:102C0000000901E058D051510C0A54E00B0A43E08E
:102C10000C0A35E0010A26E00B0A22E0020A20E055
:102C2000030A1CE0080A10E0010A0CE00F0A08E0A1
:102C3000030A01E03FD001015F8F080E406F3BD0D7
:102C4000C7D839D07EDB37D00101410E5D6F010E50
:102C50005E6F5F81010E606F5F8F2DD013D92BD017
:102C60002BD829D0545101015D6F5E6B420E5D2758
:102C7000010E5E235F81010E606F5F8F1CD001012A
:102C80005F8F02015451EA6A420FE96E010EEA2297
:102C900052C2EFFF10D0000EE66EE66AE66EE66AFC
:102CA000020EE66EE66A25EC13F0146E060EE15E87
:102CB000145001D000D01200D9CFE6FFE1CFD9FFE8
:102CC000040EE1260201520510E150511F0B0009CC
:102CD0000CE101015F8F030E0201515D04E101016E
:102CE000010E6B6F02D001016B6B0201525166E164
:102CF00050511F0B020862E154510F0B00095EE0B6
:102D000001015F8F020154BF10D054510F0BE96EC7
:102D1000EA6AD890E936EA36470EE926010EEA2239
:102D2000EECFDEFFEDCFDDFF0FD054510F0BE96E7C
:102D3000EA6AD890E936EA36510EE926010EEA220F
:102D4000EECFDEFFEDCFDDFF030E515D07E1DECFFD
:102D5000E9FFDDCFEAFF840EEF6E30D054510F0B48
:102D6000156A530F146E0F0E1522020E14C0DBFFEE
:102D7000030E15C0DBFF020EDBCFE9FF030EDBCF36
:102D8000EAFFEF9054AF0DD0DECFE9FFDDCFEAFFD1
:102D9000EF6ADF74DECFE9FFDDCFEAFF400EEF6EB2
:102DA0000DD0DECFE9FFDDCFEAFF880EEF6EDF74D6
:102DB000DECFE9FFDDCFEAFFC80EEF6E040EE15C67
:102DC00002E2E16AE552E16EE552E7CFD9FF120077
:102DD000800E0201505D55E10101C00E5F6F0201DE
:102DE0005351030A2EE0010A0EE0030A03E0010139
:102DF0005F6B47D00101D60E5D6F370E5E6F120E0E
:102E0000606F616B3ED05251F66EF76AD890F6361D
:102E1000F7367D0EF626390EF7220900F5CF5DF163
:102E20000A00F5CF5EF1020E0101F76A5D25F66E2C
:102E30005E51F7220900F5CF60F10A00F5CF61F18C
:102E400020D0030E525D1AE25251F66EF76AD89006
:102E5000F636F7367F0EF626390EF7220900F5CF43
:102E60005DF10A00F5CF5EF15DC1F6FF5EC1F7FFCF
:102E70000800F5500101606F616B02D001015F6BCA
:102E800000D01200D9CFE6FFE1CFD9FF020EE12634
:102E90000201586B596B50511F0B020A12E0030AD2
:102EA0000DE0010A01E03BD001015F8F0201588172
:102EB00001016B0502E10201588331D001015F8FEE
:102EC0002ED001015F8F020154BF10D054510F0B5F
:102ED000E96EEA6AD890E936EA36470EE926010E2D
:102EE000EA22EECFDEFFEDCFDDFF0FD054510F0B06
:102EF000E96EEA6AD890E936EA36510EE926010E03
:102F0000EA22EECFDEFFEDCFDDFFDECFE9FFDDCF42
:102F1000EAFFEF50040B02E0010E586F00D00101F0
:102F20005FAF07D0580E5D6F020E5E6F5F81020EBD
:102F3000606F020EE15C02E2E16AE552E16EE55289
:102F4000E7CFD9FF1200649801015FBF4AD064AF98
:102F500028D0020E5C6F51C1E9FF52C1EAFFEE5268
:102F6000EF6A51C1E9FF52C1EAFFC80EEF6E45C1D9
:102F7000E9FF46C1EAFFEE52080EEF6E45C1E9FFD8
:102F800046C1EAFF020EE926000EEA22580EEE6E56
:102F9000020EED6E45C1E9FF46C1EAFFC80EEF6EB5
:102FA0001FD045C1E9FF46C1EAFFEE52080EEF6EA1
:102FB00045C1E9FF46C1EAFF020EE926000EEA22FA
:102FC000500EEE6E020EED6E45C1E9FF46C1EAFFFE
:102FD0008C0EEF6E51C1E9FF52C1EAFF840EEF6E15
:102FE00086D064BF84D0020150AF59D00101605136
:102FF0000201565D010161510201575904E256C2B6
:1030000060F157C261F174D80101010E5C6F45C1D6
:10301000E9FF46C1EAFFEE52080EEF6E45C1E9FF37
:1030200046C1EAFF020EE926000EEA22500EEE6EBD
:10303000020EED6E45C1E9FF46C1EAFF800EEF6E5C
:103040006D6B43C1E9FF44C1EAFFEE52080EEF6E1B
:1030500043C1E9FF44C1EAFF020EE926000EEA225D
:10306000500EEE6E020EED6E43C1E9FF44C1EAFF61
:10307000840EEF6E010E6D6F51C1E9FF52C1EAFF80
:10308000020EE926000EEA22580EEE6E020EED6EDA
:1030900051C1E9FF52C1EAFFC80EEF6E28D001010D
:1030A000020E5C6F51C1E9FF52C1EAFFEE52EF6AB6
:1030B00051C1E9FF52C1EAFFC80EEF6E45C1E9FFF9
:1030C00046C1EAFFEE52080EEF6E45C1E9FF46C168
:1030D000EAFF020EE926000EEA22580EEE6E020EFC
:1030E000ED6E45C1E9FF46C1EAFFC80EEF6E120062
:1030F000D9CFE6FFE1CFD9FF020EE1260101080E8C
:10310000605D000E61590EE260C1DEFF61C1DDFF4E
:103110005B5103E1010E5B6F04D05B0502E1020E1F
:103120005B6F03D0080EDE6EDD6A51C1E9FF52C14C
:10313000EAFFEF9251C1E9FF52C1EAFFEF9051C19E
:10314000E9FF52C1EAFF010EDB50EF1251C1E9FF66
:1031500052C1EAFFEE52DFCFEFFF000EDB50605F9F
:10316000010EDB50615B580E696F020E6A6F5FB132
:1031700021D0D9CFE9FFDACFEAFFEE50ED1019E008
:103180005DC1F6FF5EC1F7FF5D2B000E5E230800F8
:10319000F550E66E69C1E9FF6AC1EAFF692B000ECE
:1031A0006A23E552E750EF6EDF06010E01E2DB060F
:1031B000E0D71FD0D9CFE9FFDACFEAFFEE50ED100C
:1031C00018E05DC1E9FF5EC1EAFF5D2B000E5E23E2
:1031D000EF50E66E69C1E9FF6AC1EAFF692B000E94
:1031E0006A23E552E750EF6EDF06010E01E2DB06CF
:1031F000E1D7020EE15C02E2E16AE552E16EE552DE
:10320000E7CFD9FF1200D9CFE6FFE1CFD9FF020EF9
:10321000E12643C1E9FF44C1EAFFEE52EFCFDFFFF1
:10322000DFCF14F014500101655D000E665903E212
:1032300065C1DFFF09D0DF50146E156A1450655D5B
:10324000656F15506659666F010EDB6ADF50F36ECD
:10325000010EDBCFF4FFF350F45C16E2010EDB50FD
:10326000EA6A580FE96E020EEA22EF50E66E62C17A
:10327000E9FF63C1EAFF622B000E6323E552E750CA
:10328000EF6E010EDB2AE2D7000ED8806555000EE6
:10329000665528E245C1E9FF46C1EAFFEE52080E35
:1032A000EF6E45C1E9FF46C1EAFF020EE926000EB6
:1032B000EA22580EEE6E020EED6E43C1E9FF44C1E4
:1032C000EAFFEF50400B07E145C1E9FF46C1EAFFC5
:1032D000C80EEF6E06D045C1E9FF46C1EAFF880E71
:1032E000EF6E25D045C1E9FF46C1EAFFEE52080E58
:1032F000EF6E45C1E9FF46C1EAFF020EE926000E66
:10330000EA22500EEE6E020EED6E45C1E9FF46C197
:10331000EAFF840EEF6E6751681107E005D068C1BF
:10332000FAFF01016751F96EFADF0101649F020E95
:10333000E15C02E2E16AE552E16EE552E7CFD9FFD6
:103340001200D9CFE6FFE1CFD9FFE65201015F8F2E
:10335000040EE66EE66AE66A540EE66E0F0EE66E40
:1033600024EC1EF0146E050EE15E1450DF6ADF508F
:10337000146E156A140E145C000E155810E2DF501E
:10338000040DF3CFE9FFF4CFEAFF000EE926020EA9
:10339000EA22EE6AEE6AEE6AEE6ADF2AE8D7648C09
:1033A000010EE66EE66AE66A420EE66E010EE66E13
:1033B00024EC1EF0146E050EE15E1450649C0101B5
:1033C000080E516F020E526F000E436F020E446FD3
:1033D00043C145F144C146F152C241F1415103E1BB
:1033E000100E406F12D0200E406F010EE66EE66A9E
:1033F000410EE66E010EE66E010EE66EE66A25EC03
:1034000013F0146E060EE15E1450E552E552E7CF5C
:10341000D9FF1200D9CFE6FFE1CFD9FF020EE12696
:10342000000EDE6E020EDD6EFD0EDB50E824166E21
:10343000FE0EDB50040DF3501624040DF350146EF1
:10344000156A020E0F0B05E0D89015321432E8060B
:10345000FBE1D89014361536D89014361536D9CFEE
:10346000E9FFDACFEAFF1450EE261550ED22DECF49
:10347000E9FFDDCFEAFFEF9EFD0EDB500FE1FE0E10
:10348000EA6ADB34FE0BEA36E96E470EE926010EE6
:10349000EA22DECFEEFFDDCFEDFF0ED0FE0EEA6AB0
:1034A000DB34FE0BEA36E96E510EE926010EEA2204
:1034B000DECFEEFFDDCFEDFFDECFE9FFDDCFEAFFB0
:1034C000EF9CDECFE9FFDDCFEAFF040EE926000E18
:1034D000EA22EF8C020EE15C02E2E16AE552E16E63
:1034E000E552E7CFD9FF1200D9CFE6FFE1CFD9FFF0
:1034F000020EE126FE0EDB50156A530F146E0F0EFE
:10350000152214C0DEFF15C0DDFFDECFE9FFDDCFE1
:10351000EAFFFD0EDBCFEFFFDBA407D0E66AFE0E6D
:10352000DBCFE6FF77DFE552E552FD0EDBA208D0E8
:10353000010EE66EFE0EDBCFE6FF6CDFE552E552D4
:10354000020EE15C02E2E16AE552E16EE552E7CF8C
:10355000D9FF1200D9CFE6FFE1CFD9FF020EE12655
:10356000FE0EDB5020E145C1E9FF46C1EAFFEE5205
:10357000080EEF6E45C1E9FF46C1EAFF020EE926DB
:10358000000EEA22500EEE6E020EED6E45C1E9FF0E
:1035900046C1EAFF8C0EEF6E51C1E9FF52C1EAFF4E
:1035A000840EEF6E3DD0FD0EDB50E824166EFE0E4D
:1035B000DB50040DF3501624040DF3CF14F0F4CFB8
:1035C00015F0000E1426020E152214C0DEFF15C0E1
:1035D000DDFF840E146EDECFE9FFDDCFEAFF14506D
:1035E000EF12FD0EDB50E824166EFE0EDB50040DCC
:1035F000F3501624010F040DF3CF14F0F4CF15F09F
:10360000000E1426020E152214C0DEFF15C0DDFFC9
:10361000840E146EDECFE9FFDDCFEAFF1450EF1207
:10362000020EE15C02E2E16AE552E16EE552E7CFAB
:10363000D9FF1200D9CFE6FFE1CFD9FF020EE12674
:10364000FD0EDB500FE0FE0EEA6ADB34FE0BEA36BD
:10365000E96E510EE926010EEA22EECFDEFFEDCF34
:10366000DDFF0ED0FE0EEA6ADB34FE0BEA36E96EB1
:10367000470EE926010EEA22EECFDEFFEDCFDDFF99
:10368000DECFE9FFDDCFEAFF020EE926000EEA22D7
:10369000FB0EDBCFEEFFFC0EDBCFEDFFDECFE9FF55
:1036A000DDCFEAFFEE52FA0EDBCFEFFF400E146ED5
:1036B000DECFE9FFDDCFEAFF1450EF16880E146E5F
:1036C000DECFE9FFDDCFEAFF1450EF12FD0EDB5035
:1036D0000CE0FE0EEA6ADB34FE0BEA36E96E510EB0
:1036E000E926010EEA22EF740BD0FE0EEA6ADB3403
:1036F000FE0BEA36E96E470EE926010EEA22EF7468
:10370000DECF14F0DDCF15F014C0F3FF15C0F4FFC9
:10371000020EE15C03E200D0E16AE552E16EE5529F
:10372000E7CFD9FF1200D9CFE6FFE1CFD9FF64A8D8
:103730004ED0FE0EEA6ADB34FE0BEA36E96E510E1D
:10374000E926010EEA22EE50EFCFEAFFE96E400EC5
:10375000EE16EE6AEE6AEE6AFE0EEA6ADB34FE0BE5
:10376000EA36E96E510EE926010EEA22EE50EFCF5D
:10377000EAFFE96EEE7CFE0EEA6ADB34FE0BEA3607
:10378000E96E510EE926010EEA22EF74400E146E26
:10379000FE0EEA6ADB34FE0BEA36E96E510EE926CC
:1037A000010EEA22EE50EFCFEAFFE96E1450EF1659
:1037B000FE0EEA6ADB34FE0BEA36E96E510EE926AC
:1037C000010EEA22EE50EFCFEAFFE96EEF7CE55200
:0637D000E7CFD9FF120053
:0A37D6001201000200000008EA22C0
:1037E0005A0001000102000109028200040100C028
:1037F0003209040000010301020009211101000146
:1038000022340007058103040001090401000203BA
:103810000000000921110100012231000705820387
:1038200040000107050203400001090402000203F1
:10383000010100092111010001223F000705830356
:10384000080001070503030800010904030002033F
:10385000000000092111010001221D000705840359
:103860004000010705040340000105010902A10110
:103870000901A10005091901290315002501950376
:103880007501810295017505810105010930093134
:1038900009381581257F750895038106C0C005018B
:1038A0000905A10115002501350045017501950C9B
:1038B00005091901290C81029504810105010930CE
:1038C000093126FF0046FF00750895028102C005F8
:1038D000010906A101050719E029E7150025017571
:1038E000019508810295017508810395057501050B
:1038F0000819012905910295017503910395067533
:1039000008150025E70507190029E78100C0060012
:10391000FF0901A10119012940150026FF007508C2
:1039200095408100190129409100C0040309042633
:1039300003420069007400200054007200610064BA
:1039400000650020004F006E00650020004C005410
:103950000044002E0028035200450056004900563E
:1039600000450020004D006900630072006F0020D8
:10397000004D0061007400720069007800E8372B88
:05398000392F39553913
:0A398600020150511F0B010801E07F
:10399000B8D0060E515D01E077D05351230A73E091
:1039A000010A3AE0030A01E06FD05451030A28E00B
:1039B000010A1BE0030A0EE0010A01E02CD001011C
:1039C000FA0E5D6F370E5E6F090E606F616BC00E91
:1039D0005F6F21D00101130E5D6F380E5E6F090E0F
:1039E000606F616BC00E5F6F16D00101330E5D6FAB
:1039F000380E5E6F090E606F616BC00E5F6F0BD08B
:103A00000101530E5D6F380E5E6F090E606F616BC2
:103A1000C00E5F6F00D038D05451030A28E0010A6D
:103A20001BE0030A0EE0010A01E02CD001016A0E3E
:103A30005D6F380E5E6F340E606F616BC00E5F6F2E
:103A400021D001019E0E5D6F380E5E6F310E606FEA
:103A5000616BC00E5F6F16D00101CF0E5D6F380E27
:103A60005E6F3F0E606F616BC00E5F6F0BD0010128
:103A70000E0E5D6F390E5E6F1D0E606F616BC00EB6
:103A80005F6F00D001D000D002015051600BE842BE
:103A9000E842E842E842E842010801E032D05151F0
:103AA0000B0A29E0080A1CE0090A14E0080A07E0EA
:103AB0000B0A04E0080A01E024D023D022D001013F
:103AC000F60E5D6F000E5E6F010E606F616BC10ED2
:103AD0005F6F17D00101800E5F6F53C2F6F011D0F7
:103AE0000101F70E5D6F000E5E6F010E606F616B7E
:103AF000810E5F6F06D00101800E5F6F52C2F7F03A
:043B000000D01200DF
:0C3B0400006A0EAE8BEF1DF00D6C0E1E63
:103B1000E86A0E22001E09AE93EF1DF0086C091E24
:103B2000E86A0922001E72EC1EF009BEA3EF1DF028
:103B300000AE000C086C091EE86A0922046C051E20
:103B4000E86A0522000C00BE9AEF1DF00188FF0C08
:103B500009C013F008C012F008500D02F4CF07F0AE
:103B6000F3CF06F009500E02F4CF09F0F3CF08F0BE
:103B70000D02F3500726F4500822E86A0922125079
:103B80000E02F3500726F4500822E86A09220EAE0E
:103B9000CEEF1DF01250085E1350095A13AE000C00
:0A3BA0000D50085E0E50095A000C8B
:063BAA001E0EF66E100E67
:103BB000F76E000EF86E00010900F550F16F090074
:103BC000F550F26F03E1F16701D03DD00900F550E7
:103BD000EC6F0900F550ED6F0900F550EE6F09002C
:103BE0000900F550E96E0900F550EA6E0900090078
:103BF0000900F550EF6F0900F550F06F090009005A
:103C0000F6CFF3F0F7CFF4F0F8CFF5F0ECC0F6FF15
:103C1000EDC0F7FFEEC0F8FF0001EF5302E1F053F3
:103C200007E00900F550EE6EEF07F8E2F007F9D76C
:103C3000F3C0F6FFF4C0F7FFF5C0F8FF0001F1078D
:083C4000000EF25BBFD7120079
:083C4800FE0EE3CFE9FFFF0EC1
:103C5000E3CFEAFFE9CFF3FFEACFF4FFFB0EE35037
:103C600003E1FC0EE35009E0FB0EE30602E2FC0E6A
:103C7000E306FD0EE350EE6EF1D71200FE0EE3CF29
:103C8000E9FFFF0EE3CFEAFFF36AF46AEE5203E0C6
:083C9000F34AF42AFBD71200ED
:083C9800D9CFE6FFE1CFD9FF0F
:103CA000FD0EDB50A96EA66AA680A85000D0E55292
:103CB000E7CFD9FF1200D9CFE6FFE1CFD9FFFD0E44
:103CC000DB50A96EFC0EDB50A86E040EA66E550EDE
:103CD000A76EAA0EA76EA682A6B2FED7E552E7CFC0
:043CE000D9FF1200F6
:0C3CE400056A046A100EE76ED8900836DE
:103CF0000936043605360D50045C0E50055805E3B0
:103D00000D50045E0E50055A082AE72EF0D7120017
:103D1000000EF36E00EE00F0030E01D81200EA6010
:103D200002D0EE6AFCD7F350E9601200EE6AFCD7CD
:103D300011EE00F021EE00F0F86A019CD5EC1DF0C8
:0C3D400003EC08F032EC08F0FBD7120096
:043D4C00FF0EE35033
:103D5000E84E1200000000D000D000D0E82EFAD7C4
:023D600012004F
:0E3D62004D5F4D3030320000000000000000C8
:103D70000000000000000000000000000000000043
:103D80000000000000000000000000000000000033
:103D90000000000000000000000000000000000023
:103DA0000000000000000000000000000000000013
:103DB0000000000000000000000000000000000003
:103DC00000000000000000000000000000000000F3
:103DD00000000000000000000000000000000000E3
:0E3DE0000000000000000000000000000000D5
:020000040030CA
:0100000000FF
:0100010032CC
:0100020001FC
:010003001EDE
:0100050000FA
:010006008178
:0100080003F4
:01000900C036
:01000A0003F2
:01000B00E014
:01000C0003F0
:01000D0040B2
:00000001FF
